{
  "_format": "hh-sol-artifact-1",
  "contractName": "NFTContract",
  "sourceName": "contracts/NFTContract.sol",
  "abi": [
    {
      "inputs": [],
      "stateMutability": "nonpayable",
      "type": "constructor"
    },
    {
      "anonymous": false,
      "inputs": [
        {
          "indexed": true,
          "internalType": "address",
          "name": "owner",
          "type": "address"
        },
        {
          "indexed": true,
          "internalType": "address",
          "name": "approved",
          "type": "address"
        },
        {
          "indexed": true,
          "internalType": "uint256",
          "name": "tokenId",
          "type": "uint256"
        }
      ],
      "name": "Approval",
      "type": "event"
    },
    {
      "anonymous": false,
      "inputs": [
        {
          "indexed": true,
          "internalType": "address",
          "name": "owner",
          "type": "address"
        },
        {
          "indexed": true,
          "internalType": "address",
          "name": "operator",
          "type": "address"
        },
        {
          "indexed": false,
          "internalType": "bool",
          "name": "approved",
          "type": "bool"
        }
      ],
      "name": "ApprovalForAll",
      "type": "event"
    },
    {
      "anonymous": false,
      "inputs": [
        {
          "indexed": true,
          "internalType": "address",
          "name": "from",
          "type": "address"
        },
        {
          "indexed": true,
          "internalType": "address",
          "name": "to",
          "type": "address"
        },
        {
          "indexed": true,
          "internalType": "uint256",
          "name": "tokenId",
          "type": "uint256"
        }
      ],
      "name": "Transfer",
      "type": "event"
    },
    {
      "inputs": [
        {
          "internalType": "address",
          "name": "to",
          "type": "address"
        },
        {
          "internalType": "uint256",
          "name": "tokenId",
          "type": "uint256"
        }
      ],
      "name": "approve",
      "outputs": [],
      "stateMutability": "nonpayable",
      "type": "function"
    },
    {
      "inputs": [
        {
          "internalType": "address",
          "name": "owner",
          "type": "address"
        }
      ],
      "name": "balanceOf",
      "outputs": [
        {
          "internalType": "uint256",
          "name": "",
          "type": "uint256"
        }
      ],
      "stateMutability": "view",
      "type": "function"
    },
    {
      "inputs": [
        {
          "internalType": "uint256",
          "name": "tokenId",
          "type": "uint256"
        }
      ],
      "name": "getApproved",
      "outputs": [
        {
          "internalType": "address",
          "name": "",
          "type": "address"
        }
      ],
      "stateMutability": "view",
      "type": "function"
    },
    {
      "inputs": [
        {
          "internalType": "address",
          "name": "owner",
          "type": "address"
        },
        {
          "internalType": "address",
          "name": "operator",
          "type": "address"
        }
      ],
      "name": "isApprovedForAll",
      "outputs": [
        {
          "internalType": "bool",
          "name": "",
          "type": "bool"
        }
      ],
      "stateMutability": "view",
      "type": "function"
    },
    {
      "inputs": [],
      "name": "makeAnNFT",
      "outputs": [],
      "stateMutability": "nonpayable",
      "type": "function"
    },
    {
      "inputs": [],
      "name": "name",
      "outputs": [
        {
          "internalType": "string",
          "name": "",
          "type": "string"
        }
      ],
      "stateMutability": "view",
      "type": "function"
    },
    {
      "inputs": [
        {
          "internalType": "uint256",
          "name": "tokenId",
          "type": "uint256"
        }
      ],
      "name": "ownerOf",
      "outputs": [
        {
          "internalType": "address",
          "name": "",
          "type": "address"
        }
      ],
      "stateMutability": "view",
      "type": "function"
    },
    {
      "inputs": [
        {
          "internalType": "address",
          "name": "from",
          "type": "address"
        },
        {
          "internalType": "address",
          "name": "to",
          "type": "address"
        },
        {
          "internalType": "uint256",
          "name": "tokenId",
          "type": "uint256"
        }
      ],
      "name": "safeTransferFrom",
      "outputs": [],
      "stateMutability": "nonpayable",
      "type": "function"
    },
    {
      "inputs": [
        {
          "internalType": "address",
          "name": "from",
          "type": "address"
        },
        {
          "internalType": "address",
          "name": "to",
          "type": "address"
        },
        {
          "internalType": "uint256",
          "name": "tokenId",
          "type": "uint256"
        },
        {
          "internalType": "bytes",
          "name": "_data",
          "type": "bytes"
        }
      ],
      "name": "safeTransferFrom",
      "outputs": [],
      "stateMutability": "nonpayable",
      "type": "function"
    },
    {
      "inputs": [
        {
          "internalType": "address",
          "name": "operator",
          "type": "address"
        },
        {
          "internalType": "bool",
          "name": "approved",
          "type": "bool"
        }
      ],
      "name": "setApprovalForAll",
      "outputs": [],
      "stateMutability": "nonpayable",
      "type": "function"
    },
    {
      "inputs": [
        {
          "internalType": "bytes4",
          "name": "interfaceId",
          "type": "bytes4"
        }
      ],
      "name": "supportsInterface",
      "outputs": [
        {
          "internalType": "bool",
          "name": "",
          "type": "bool"
        }
      ],
      "stateMutability": "view",
      "type": "function"
    },
    {
      "inputs": [],
      "name": "symbol",
      "outputs": [
        {
          "internalType": "string",
          "name": "",
          "type": "string"
        }
      ],
      "stateMutability": "view",
      "type": "function"
    },
    {
      "inputs": [
        {
          "internalType": "uint256",
          "name": "tokenId",
          "type": "uint256"
        }
      ],
      "name": "tokenURI",
      "outputs": [
        {
          "internalType": "string",
          "name": "",
          "type": "string"
        }
      ],
      "stateMutability": "view",
      "type": "function"
    },
    {
      "inputs": [
        {
          "internalType": "address",
          "name": "from",
          "type": "address"
        },
        {
          "internalType": "address",
          "name": "to",
          "type": "address"
        },
        {
          "internalType": "uint256",
          "name": "tokenId",
          "type": "uint256"
        }
      ],
      "name": "transferFrom",
      "outputs": [],
      "stateMutability": "nonpayable",
      "type": "function"
    }
  ],
  "bytecode": "0x608060405260405180610100016040528060ce815260200162004d7c60ce9139600890805190602001906200003692919062000948565b50604051806102a00160405280610270815260200162004e4a6102709139600990805190602001906200006b92919062000948565b506040518060400160405280600281526020017f273e000000000000000000000000000000000000000000000000000000000000815250600a9080519060200190620000b992919062000948565b5060405180610740016040528061070181526020016200467b6107019139600b9080519060200190620000ee92919062000948565b506040518061028001604052806040518060400160405280600581526020017f4d696c6b7900000000000000000000000000000000000000000000000000000081525081526020016040518060400160405280600581526020017f4c6f6f736500000000000000000000000000000000000000000000000000000081525081526020016040518060400160405280600581526020017f496465616c00000000000000000000000000000000000000000000000000000081525081526020016040518060400160405280600781526020017f56657264616e740000000000000000000000000000000000000000000000000081525081526020016040518060400160405280600581526020017f506f696e7400000000000000000000000000000000000000000000000000000081525081526020016040518060400160405280600481526020017f576972650000000000000000000000000000000000000000000000000000000081525081526020016040518060400160405280600481526020017f4c616e640000000000000000000000000000000000000000000000000000000081525081526020016040518060400160405280600481526020017f50756d700000000000000000000000000000000000000000000000000000000081525081526020016040518060400160405280600681526020017f507572706c65000000000000000000000000000000000000000000000000000081525081526020016040518060400160405280600781526020017f417765736f6d650000000000000000000000000000000000000000000000000081525081526020016040518060400160405280600681526020017f50616e747279000000000000000000000000000000000000000000000000000081525081526020016040518060400160405280600681526020017f446573657274000000000000000000000000000000000000000000000000000081525081526020016040518060400160405280600481526020017f4f7263610000000000000000000000000000000000000000000000000000000081525081526020016040518060400160405280600481526020017f4368696e0000000000000000000000000000000000000000000000000000000081525081526020016040518060400160405280600681526020017f576967676c79000000000000000000000000000000000000000000000000000081525081526020016040518060400160405280600581526020017f476f646c7900000000000000000000000000000000000000000000000000000081525081526020016040518060400160405280600581526020017f506f77657200000000000000000000000000000000000000000000000000000081525081526020016040518060400160405280600481526020017f536c69700000000000000000000000000000000000000000000000000000000081525081526020016040518060400160405280600781526020017f526f61737465640000000000000000000000000000000000000000000000000081525081526020016040518060400160405280600681526020017f4275636b65740000000000000000000000000000000000000000000000000000815250815250600c906014620005a7929190620009d9565b5060405180608001604052806040518060400160405280600781526020017f233566313066350000000000000000000000000000000000000000000000000081525081526020016040518060400160405280600781526020017f233933666161350000000000000000000000000000000000000000000000000081525081526020016040518060400160405280600781526020017f233062376661620000000000000000000000000000000000000000000000000081525081526020016040518060400160405280600781526020017f2362376634643800000000000000000000000000000000000000000000000000815250815250600d906004620006af92919062000a40565b5060405180606001604052806040518060400160405280600781526020017f236537366438390000000000000000000000000000000000000000000000000081525081526020016040518060400160405280600781526020017f236665373936380000000000000000000000000000000000000000000000000081525081526020016040518060400160405280600781526020017f2366323739333500000000000000000000000000000000000000000000000000815250815250600e9060036200077c92919062000aa7565b503480156200078a57600080fd5b506040518060400160405280600981526020017f5371756172654e465400000000000000000000000000000000000000000000008152506040518060400160405280600681526020017f535155415245000000000000000000000000000000000000000000000000000081525081600090805190602001906200080f92919062000948565b5080600190805190602001906200082892919062000948565b505050620008766040518060400160405280600d81526020017f4e465420636f6e74726163742e000000000000000000000000000000000000008152506200087c60201b62000ecf1760201c565b62000cc8565b6200091c8160405160240162000893919062000bdc565b6040516020818303038152906040527f41304fac000000000000000000000000000000000000000000000000000000007bffffffffffffffffffffffffffffffffffffffffffffffffffffffff19166020820180517bffffffffffffffffffffffffffffffffffffffffffffffffffffffff83818316178352505050506200091f60201b60201c565b50565b60008151905060006a636f6e736f6c652e6c6f679050602083016000808483855afa5050505050565b828054620009569062000c52565b90600052602060002090601f0160209004810192826200097a5760008555620009c6565b82601f106200099557805160ff1916838001178555620009c6565b82800160010185558215620009c6579182015b82811115620009c5578251825591602001919060010190620009a8565b5b509050620009d5919062000b0e565b5090565b82805482825590600052602060002090810192821562000a2d579160200282015b8281111562000a2c57825182908051906020019062000a1b92919062000948565b5091602001919060010190620009fa565b5b50905062000a3c919062000b2d565b5090565b82805482825590600052602060002090810192821562000a94579160200282015b8281111562000a9357825182908051906020019062000a8292919062000948565b509160200191906001019062000a61565b5b50905062000aa3919062000b2d565b5090565b82805482825590600052602060002090810192821562000afb579160200282015b8281111562000afa57825182908051906020019062000ae992919062000948565b509160200191906001019062000ac8565b5b50905062000b0a919062000b2d565b5090565b5b8082111562000b2957600081600090555060010162000b0f565b5090565b5b8082111562000b51576000818162000b47919062000b55565b5060010162000b2e565b5090565b50805462000b639062000c52565b6000825580601f1062000b77575062000b98565b601f01602090049060005260206000209081019062000b97919062000b0e565b5b50565b600062000ba88262000c00565b62000bb4818562000c0b565b935062000bc681856020860162000c1c565b62000bd18162000cb7565b840191505092915050565b6000602082019050818103600083015262000bf8818462000b9b565b905092915050565b600081519050919050565b600082825260208201905092915050565b60005b8381101562000c3c57808201518184015260208101905062000c1f565b8381111562000c4c576000848401525b50505050565b6000600282049050600182168062000c6b57607f821691505b6020821081141562000c825762000c8162000c88565b5b50919050565b7f4e487b7100000000000000000000000000000000000000000000000000000000600052602260045260246000fd5b6000601f19601f8301169050919050565b6139a38062000cd86000396000f3fe608060405234801561001057600080fd5b50600436106100ea5760003560e01c806370a082311161008c578063b88d4fde11610066578063b88d4fde1461025b578063c87b56dd14610277578063e4d098e1146102a7578063e985e9c5146102b1576100ea565b806370a08231146101f157806395d89b4114610221578063a22cb4651461023f576100ea565b8063095ea7b3116100c8578063095ea7b31461016d57806323b872dd1461018957806342842e0e146101a55780636352211e146101c1576100ea565b806301ffc9a7146100ef57806306fdde031461011f578063081812fc1461013d575b600080fd5b610109600480360381019061010491906122cf565b6102e1565b6040516101169190612b08565b60405180910390f35b6101276103c3565b6040516101349190612b23565b60405180910390f35b61015760048036038101906101529190612321565b610455565b6040516101649190612aa1565b60405180910390f35b61018760048036038101906101829190612293565b6104da565b005b6101a3600480360381019061019e919061218d565b6105f2565b005b6101bf60048036038101906101ba919061218d565b610652565b005b6101db60048036038101906101d69190612321565b610672565b6040516101e89190612aa1565b60405180910390f35b61020b60048036038101906102069190612128565b610724565b6040516102189190612d83565b60405180910390f35b6102296107dc565b6040516102369190612b23565b60405180910390f35b61025960048036038101906102549190612257565b61086e565b005b610275600480360381019061027091906121dc565b610884565b005b610291600480360381019061028c9190612321565b6108e6565b60405161029e9190612b23565b60405180910390f35b6102af610a38565b005b6102cb60048036038101906102c69190612151565b610e3b565b6040516102d89190612b08565b60405180910390f35b60007f80ac58cd000000000000000000000000000000000000000000000000000000007bffffffffffffffffffffffffffffffffffffffffffffffffffffffff1916827bffffffffffffffffffffffffffffffffffffffffffffffffffffffff191614806103ac57507f5b5e139f000000000000000000000000000000000000000000000000000000007bffffffffffffffffffffffffffffffffffffffffffffffffffffffff1916827bffffffffffffffffffffffffffffffffffffffffffffffffffffffff1916145b806103bc57506103bb82610f68565b5b9050919050565b6060600080546103d290613017565b80601f01602080910402602001604051908101604052809291908181526020018280546103fe90613017565b801561044b5780601f106104205761010080835404028352916020019161044b565b820191906000526020600020905b81548152906001019060200180831161042e57829003601f168201915b5050505050905090565b600061046082610fd2565b61049f576040517f08c379a000000000000000000000000000000000000000000000000000000000815260040161049690612ce3565b60405180910390fd5b6004600083815260200190815260200160002060009054906101000a900473ffffffffffffffffffffffffffffffffffffffff169050919050565b60006104e582610672565b90508073ffffffffffffffffffffffffffffffffffffffff168373ffffffffffffffffffffffffffffffffffffffff161415610556576040517f08c379a000000000000000000000000000000000000000000000000000000000815260040161054d90612d43565b60405180910390fd5b8073ffffffffffffffffffffffffffffffffffffffff1661057561103e565b73ffffffffffffffffffffffffffffffffffffffff1614806105a457506105a38161059e61103e565b610e3b565b5b6105e3576040517f08c379a00000000000000000000000000000000000000000000000000000000081526004016105da90612c23565b60405180910390fd5b6105ed8383611046565b505050565b6106036105fd61103e565b826110ff565b610642576040517f08c379a000000000000000000000000000000000000000000000000000000000815260040161063990612d63565b60405180910390fd5b61064d8383836111dd565b505050565b61066d83838360405180602001604052806000815250610884565b505050565b6000806002600084815260200190815260200160002060009054906101000a900473ffffffffffffffffffffffffffffffffffffffff169050600073ffffffffffffffffffffffffffffffffffffffff168173ffffffffffffffffffffffffffffffffffffffff16141561071b576040517f08c379a000000000000000000000000000000000000000000000000000000000815260040161071290612c63565b60405180910390fd5b80915050919050565b60008073ffffffffffffffffffffffffffffffffffffffff168273ffffffffffffffffffffffffffffffffffffffff161415610795576040517f08c379a000000000000000000000000000000000000000000000000000000000815260040161078c90612c43565b60405180910390fd5b600360008373ffffffffffffffffffffffffffffffffffffffff1673ffffffffffffffffffffffffffffffffffffffff168152602001908152602001600020549050919050565b6060600180546107eb90613017565b80601f016020809104026020016040519081016040528092919081815260200182805461081790613017565b80156108645780601f1061083957610100808354040283529160200191610864565b820191906000526020600020905b81548152906001019060200180831161084757829003601f168201915b5050505050905090565b61088061087961103e565b8383611439565b5050565b61089561088f61103e565b836110ff565b6108d4576040517f08c379a00000000000000000000000000000000000000000000000000000000081526004016108cb90612d63565b60405180910390fd5b6108e0848484846115a6565b50505050565b60606108f182610fd2565b610930576040517f08c379a000000000000000000000000000000000000000000000000000000000815260040161092790612cc3565b60405180910390fd5b600060066000848152602001908152602001600020805461095090613017565b80601f016020809104026020016040519081016040528092919081815260200182805461097c90613017565b80156109c95780601f1061099e576101008083540402835291602001916109c9565b820191906000526020600020905b8154815290600101906020018083116109ac57829003601f168201915b5050505050905060006109da611602565b90506000815114156109f0578192505050610a33565b600082511115610a25578082604051602001610a0d929190612884565b60405160208183030381529060405292505050610a33565b610a2e84611619565b925050505b919050565b6000610a4460076116c0565b90506000600c80549050610a7e610a5a846116ce565b604051602001610a6a91906129bd565b60405160208183030381529060405261187b565b610a8891906130c3565b90506000600c80549050610ac2610a9e856116ce565b604051602001610aae919061299b565b60405160208183030381529060405261187b565b610acc91906130c3565b90506000600c80549050610b06610ae2866116ce565b604051602001610af29190612a5d565b60405160208183030381529060405261187b565b610b1091906130c3565b90506000600c8481548110610b4e577f4e487b7100000000000000000000000000000000000000000000000000000000600052603260045260246000fd5b90600052602060002001600c8481548110610b92577f4e487b7100000000000000000000000000000000000000000000000000000000600052603260045260246000fd5b90600052602060002001600c8481548110610bd6577f4e487b7100000000000000000000000000000000000000000000000000000000600052603260045260246000fd5b90600052602060002001604051602001610bf2939291906128a8565b60405160208183030381529060405290506000600d80549050610c3b610c17886116ce565b604051602001610c2791906129df565b60405160208183030381529060405261187b565b610c4591906130c3565b90506000600e80549050610c7f610c5b896116ce565b604051602001610c6b9190612a01565b60405160208183030381529060405261187b565b610c8991906130c3565b905060006008600e8381548110610cc9577f4e487b7100000000000000000000000000000000000000000000000000000000600052603260045260246000fd5b906000526020600020016009600d8681548110610d0f577f4e487b7100000000000000000000000000000000000000000000000000000000600052603260045260246000fd5b90600052602060002001600a88600b604051602001610d3497969594939291906128d9565b604051602081830303815290604052905060006040518060800160405280605b8152602001613913605b913990506000610d6d8a6116ce565b86604051602001610d7f929190612a23565b60405160208183030381529060405290506000610dc68284610da0876118ae565b604051602001610db29392919061293e565b6040516020818303038152906040526118ae565b9050600081604051602001610ddb9190612a7f565b6040516020818303038152906040529050610df6338d611a6c565b610e008c82611a8a565b610e236040518060600160405280602581526020016138ae602591398d33611afe565b610e2d6007611b9d565b505050505050505050505050565b6000600560008473ffffffffffffffffffffffffffffffffffffffff1673ffffffffffffffffffffffffffffffffffffffff16815260200190815260200160002060008373ffffffffffffffffffffffffffffffffffffffff1673ffffffffffffffffffffffffffffffffffffffff16815260200190815260200160002060009054906101000a900460ff16905092915050565b610f6581604051602401610ee39190612b23565b6040516020818303038152906040527f41304fac000000000000000000000000000000000000000000000000000000007bffffffffffffffffffffffffffffffffffffffffffffffffffffffff19166020820180517bffffffffffffffffffffffffffffffffffffffffffffffffffffffff8381831617835250505050611bb3565b50565b60007f01ffc9a7000000000000000000000000000000000000000000000000000000007bffffffffffffffffffffffffffffffffffffffffffffffffffffffff1916827bffffffffffffffffffffffffffffffffffffffffffffffffffffffff1916149050919050565b60008073ffffffffffffffffffffffffffffffffffffffff166002600084815260200190815260200160002060009054906101000a900473ffffffffffffffffffffffffffffffffffffffff1673ffffffffffffffffffffffffffffffffffffffff1614159050919050565b600033905090565b816004600083815260200190815260200160002060006101000a81548173ffffffffffffffffffffffffffffffffffffffff021916908373ffffffffffffffffffffffffffffffffffffffff160217905550808273ffffffffffffffffffffffffffffffffffffffff166110b983610672565b73ffffffffffffffffffffffffffffffffffffffff167f8c5be1e5ebec7d5bd14f71427d1e84f3dd0314c0f7b2291e5b200ac8c7c3b92560405160405180910390a45050565b600061110a82610fd2565b611149576040517f08c379a000000000000000000000000000000000000000000000000000000000815260040161114090612c03565b60405180910390fd5b600061115483610672565b90508073ffffffffffffffffffffffffffffffffffffffff168473ffffffffffffffffffffffffffffffffffffffff1614806111c357508373ffffffffffffffffffffffffffffffffffffffff166111ab84610455565b73ffffffffffffffffffffffffffffffffffffffff16145b806111d457506111d38185610e3b565b5b91505092915050565b8273ffffffffffffffffffffffffffffffffffffffff166111fd82610672565b73ffffffffffffffffffffffffffffffffffffffff1614611253576040517f08c379a000000000000000000000000000000000000000000000000000000000815260040161124a90612d03565b60405180910390fd5b600073ffffffffffffffffffffffffffffffffffffffff168273ffffffffffffffffffffffffffffffffffffffff1614156112c3576040517f08c379a00000000000000000000000000000000000000000000000000000000081526004016112ba90612bc3565b60405180910390fd5b6112ce838383611bdc565b6112d9600082611046565b6001600360008573ffffffffffffffffffffffffffffffffffffffff1673ffffffffffffffffffffffffffffffffffffffff16815260200190815260200160002060008282546113299190612f2d565b925050819055506001600360008473ffffffffffffffffffffffffffffffffffffffff1673ffffffffffffffffffffffffffffffffffffffff16815260200190815260200160002060008282546113809190612e4c565b92505081905550816002600083815260200190815260200160002060006101000a81548173ffffffffffffffffffffffffffffffffffffffff021916908373ffffffffffffffffffffffffffffffffffffffff160217905550808273ffffffffffffffffffffffffffffffffffffffff168473ffffffffffffffffffffffffffffffffffffffff167fddf252ad1be2c89b69c2b068fc378daa952ba7f163c4a11628f55a4df523b3ef60405160405180910390a4505050565b8173ffffffffffffffffffffffffffffffffffffffff168373ffffffffffffffffffffffffffffffffffffffff1614156114a8576040517f08c379a000000000000000000000000000000000000000000000000000000000815260040161149f90612be3565b60405180910390fd5b80600560008573ffffffffffffffffffffffffffffffffffffffff1673ffffffffffffffffffffffffffffffffffffffff16815260200190815260200160002060008473ffffffffffffffffffffffffffffffffffffffff1673ffffffffffffffffffffffffffffffffffffffff16815260200190815260200160002060006101000a81548160ff0219169083151502179055508173ffffffffffffffffffffffffffffffffffffffff168373ffffffffffffffffffffffffffffffffffffffff167f17307eab39ab6107e8899845ad3d59bd9653f200f220920489ca2b5937696c31836040516115999190612b08565b60405180910390a3505050565b6115b18484846111dd565b6115bd84848484611be1565b6115fc576040517f08c379a00000000000000000000000000000000000000000000000000000000081526004016115f390612b83565b60405180910390fd5b50505050565b606060405180602001604052806000815250905090565b606061162482610fd2565b611663576040517f08c379a000000000000000000000000000000000000000000000000000000000815260040161165a90612d23565b60405180910390fd5b600061166d611602565b9050600081511161168d57604051806020016040528060008152506116b8565b80611697846116ce565b6040516020016116a8929190612884565b6040516020818303038152906040525b915050919050565b600081600001549050919050565b60606000821415611716576040518060400160405280600181526020017f30000000000000000000000000000000000000000000000000000000000000008152509050611876565b600082905060005b600082146117485780806117319061307a565b915050600a826117419190612ea2565b915061171e565b60008167ffffffffffffffff81111561178a577f4e487b7100000000000000000000000000000000000000000000000000000000600052604160045260246000fd5b6040519080825280601f01601f1916602001820160405280156117bc5781602001600182028036833780820191505090505b5090505b6000851461186f576001826117d59190612f2d565b9150600a856117e491906130c3565b60306117f09190612e4c565b60f81b81838151811061182c577f4e487b7100000000000000000000000000000000000000000000000000000000600052603260045260246000fd5b60200101907effffffffffffffffffffffffffffffffffffffffffffffffffffffffffffff1916908160001a905350600a856118689190612ea2565b94506117c0565b8093505050505b919050565b60008160405160200161188e919061286d565b6040516020818303038152906040528051906020012060001c9050919050565b606060008251905060008114156118d75760405180602001604052806000815250915050611a67565b600060036002836118e89190612e4c565b6118f29190612ea2565b60046118fe9190612ed3565b9050600060208261190f9190612e4c565b67ffffffffffffffff81111561194e577f4e487b7100000000000000000000000000000000000000000000000000000000600052604160045260246000fd5b6040519080825280601f01601f1916602001820160405280156119805781602001600182028036833780820191505090505b50905060006040518060600160405280604081526020016138d3604091399050600181016020830160005b86811015611a245760038101905062ffffff818a015116603f8160121c168401518060081b905060ff603f83600c1c1686015116810190508060081b905060ff603f8360061c1686015116810190508060081b905060ff603f831686015116810190508060e01b905080845260048401935050506119ab565b506003860660018114611a3e5760028114611a4e57611a59565b613d3d60f01b6002830352611a59565b603d60f81b60018303525b508484525050819450505050505b919050565b611a86828260405180602001604052806000815250611d78565b5050565b611a9382610fd2565b611ad2576040517f08c379a0000000000000000000000000000000000000000000000000000000008152600401611ac990612c83565b60405180910390fd5b80600660008481526020019081526020016000209080519060200190611af9929190611fb4565b505050565b611b98838383604051602401611b1693929190612b45565b6040516020818303038152906040527fe3849f79000000000000000000000000000000000000000000000000000000007bffffffffffffffffffffffffffffffffffffffffffffffffffffffff19166020820180517bffffffffffffffffffffffffffffffffffffffffffffffffffffffff8381831617835250505050611bb3565b505050565b6001816000016000828254019250508190555050565b60008151905060006a636f6e736f6c652e6c6f679050602083016000808483855afa5050505050565b505050565b6000611c028473ffffffffffffffffffffffffffffffffffffffff16611dd3565b15611d6b578373ffffffffffffffffffffffffffffffffffffffff1663150b7a02611c2b61103e565b8786866040518563ffffffff1660e01b8152600401611c4d9493929190612abc565b602060405180830381600087803b158015611c6757600080fd5b505af1925050508015611c9857506040513d601f19601f82011682018060405250810190611c9591906122f8565b60015b611d1b573d8060008114611cc8576040519150601f19603f3d011682016040523d82523d6000602084013e611ccd565b606091505b50600081511415611d13576040517f08c379a0000000000000000000000000000000000000000000000000000000008152600401611d0a90612b83565b60405180910390fd5b805181602001fd5b63150b7a0260e01b7bffffffffffffffffffffffffffffffffffffffffffffffffffffffff1916817bffffffffffffffffffffffffffffffffffffffffffffffffffffffff191614915050611d70565b600190505b949350505050565b611d828383611de6565b611d8f6000848484611be1565b611dce576040517f08c379a0000000000000000000000000000000000000000000000000000000008152600401611dc590612b83565b60405180910390fd5b505050565b600080823b905060008111915050919050565b600073ffffffffffffffffffffffffffffffffffffffff168273ffffffffffffffffffffffffffffffffffffffff161415611e56576040517f08c379a0000000000000000000000000000000000000000000000000000000008152600401611e4d90612ca3565b60405180910390fd5b611e5f81610fd2565b15611e9f576040517f08c379a0000000000000000000000000000000000000000000000000000000008152600401611e9690612ba3565b60405180910390fd5b611eab60008383611bdc565b6001600360008473ffffffffffffffffffffffffffffffffffffffff1673ffffffffffffffffffffffffffffffffffffffff1681526020019081526020016000206000828254611efb9190612e4c565b92505081905550816002600083815260200190815260200160002060006101000a81548173ffffffffffffffffffffffffffffffffffffffff021916908373ffffffffffffffffffffffffffffffffffffffff160217905550808273ffffffffffffffffffffffffffffffffffffffff16600073ffffffffffffffffffffffffffffffffffffffff167fddf252ad1be2c89b69c2b068fc378daa952ba7f163c4a11628f55a4df523b3ef60405160405180910390a45050565b828054611fc090613017565b90600052602060002090601f016020900481019282611fe25760008555612029565b82601f10611ffb57805160ff1916838001178555612029565b82800160010185558215612029579182015b8281111561202857825182559160200191906001019061200d565b5b509050612036919061203a565b5090565b5b8082111561205357600081600090555060010161203b565b5090565b600061206a61206584612dc3565b612d9e565b90508281526020810184848401111561208257600080fd5b61208d848285612fd5565b509392505050565b6000813590506120a481613851565b92915050565b6000813590506120b981613868565b92915050565b6000813590506120ce8161387f565b92915050565b6000815190506120e38161387f565b92915050565b600082601f8301126120fa57600080fd5b813561210a848260208601612057565b91505092915050565b60008135905061212281613896565b92915050565b60006020828403121561213a57600080fd5b600061214884828501612095565b91505092915050565b6000806040838503121561216457600080fd5b600061217285828601612095565b925050602061218385828601612095565b9150509250929050565b6000806000606084860312156121a257600080fd5b60006121b086828701612095565b93505060206121c186828701612095565b92505060406121d286828701612113565b9150509250925092565b600080600080608085870312156121f257600080fd5b600061220087828801612095565b945050602061221187828801612095565b935050604061222287828801612113565b925050606085013567ffffffffffffffff81111561223f57600080fd5b61224b878288016120e9565b91505092959194509250565b6000806040838503121561226a57600080fd5b600061227885828601612095565b9250506020612289858286016120aa565b9150509250929050565b600080604083850312156122a657600080fd5b60006122b485828601612095565b92505060206122c585828601612113565b9150509250929050565b6000602082840312156122e157600080fd5b60006122ef848285016120bf565b91505092915050565b60006020828403121561230a57600080fd5b6000612318848285016120d4565b91505092915050565b60006020828403121561233357600080fd5b600061234184828501612113565b91505092915050565b61235381612f61565b82525050565b61236281612f73565b82525050565b600061237382612e09565b61237d8185612e1f565b935061238d818560208601612fe4565b612396816131b0565b840191505092915050565b60006123ac82612e14565b6123b68185612e30565b93506123c6818560208601612fe4565b6123cf816131b0565b840191505092915050565b60006123e582612e14565b6123ef8185612e41565b93506123ff818560208601612fe4565b80840191505092915050565b6000815461241881613017565b6124228186612e41565b9450600182166000811461243d576001811461244e57612481565b60ff19831686528186019350612481565b61245785612df4565b60005b838110156124795781548189015260018201915060208101905061245a565b838801955050505b50505092915050565b6000612497600983612e41565b91506124a2826131c1565b600982019050919050565b60006124ba603283612e30565b91506124c5826131ea565b604082019050919050565b60006124dd601c83612e30565b91506124e882613239565b602082019050919050565b6000612500600683612e41565b915061250b82613262565b600682019050919050565b6000612523602483612e30565b915061252e8261328b565b604082019050919050565b6000612546601983612e30565b9150612551826132da565b602082019050919050565b6000612569602c83612e30565b915061257482613303565b604082019050919050565b600061258c600583612e41565b915061259782613352565b600582019050919050565b60006125af603883612e30565b91506125ba8261337b565b604082019050919050565b60006125d2602a83612e30565b91506125dd826133ca565b604082019050919050565b60006125f5602983612e30565b915061260082613419565b604082019050919050565b6000612618602e83612e30565b915061262382613468565b604082019050919050565b600061263b600a83612e41565b9150612646826134b7565b600a82019050919050565b600061265e600283612e41565b9150612669826134e0565b600282019050919050565b6000612681602083612e30565b915061268c82613509565b602082019050919050565b60006126a4603183612e30565b91506126af82613532565b604082019050919050565b60006126c7602c83612e30565b91506126d282613581565b604082019050919050565b60006126ea601283612e41565b91506126f5826135d0565b601282019050919050565b600061270d602983612e30565b9150612718826135f9565b604082019050919050565b6000612730600a83612e41565b915061273b82613648565b600a82019050919050565b6000612753602f83612e30565b915061275e82613671565b604082019050919050565b6000612776600183612e41565b9150612781826136c0565b600182019050919050565b6000612799600583612e41565b91506127a4826136e9565b600582019050919050565b60006127bc602183612e30565b91506127c782613712565b604082019050919050565b60006127df601d83612e41565b91506127ea82613761565b601d82019050919050565b6000612802603183612e30565b915061280d8261378a565b604082019050919050565b6000612825600183612e41565b9150612830826137d9565b600182019050919050565b6000612848602683612e41565b915061285382613802565b602682019050919050565b61286781612fcb565b82525050565b600061287982846123da565b915081905092915050565b600061289082856123da565b915061289c82846123da565b91508190509392505050565b60006128b4828661240b565b91506128c0828561240b565b91506128cc828461240b565b9150819050949350505050565b60006128e5828a61240b565b91506128f1828961240b565b91506128fd828861240b565b9150612909828761240b565b9150612915828661240b565b915061292182856123da565b915061292d828461240b565b915081905098975050505050505050565b60006129498261248a565b915061295582866123da565b9150612960826126dd565b915061296c82856123da565b91506129778261283b565b915061298382846123da565b915061298e82612651565b9150819050949350505050565b60006129a6826124f3565b91506129b282846123da565b915081905092915050565b60006129c88261257f565b91506129d482846123da565b915081905092915050565b60006129ea8261262e565b91506129f682846123da565b915081905092915050565b6000612a0c82612723565b9150612a1882846123da565b915081905092915050565b6000612a2e82612769565b9150612a3a82856123da565b9150612a4582612818565b9150612a5182846123da565b91508190509392505050565b6000612a688261278c565b9150612a7482846123da565b915081905092915050565b6000612a8a826127d2565b9150612a9682846123da565b915081905092915050565b6000602082019050612ab6600083018461234a565b92915050565b6000608082019050612ad1600083018761234a565b612ade602083018661234a565b612aeb604083018561285e565b8181036060830152612afd8184612368565b905095945050505050565b6000602082019050612b1d6000830184612359565b92915050565b60006020820190508181036000830152612b3d81846123a1565b905092915050565b60006060820190508181036000830152612b5f81866123a1565b9050612b6e602083018561285e565b612b7b604083018461234a565b949350505050565b60006020820190508181036000830152612b9c816124ad565b9050919050565b60006020820190508181036000830152612bbc816124d0565b9050919050565b60006020820190508181036000830152612bdc81612516565b9050919050565b60006020820190508181036000830152612bfc81612539565b9050919050565b60006020820190508181036000830152612c1c8161255c565b9050919050565b60006020820190508181036000830152612c3c816125a2565b9050919050565b60006020820190508181036000830152612c5c816125c5565b9050919050565b60006020820190508181036000830152612c7c816125e8565b9050919050565b60006020820190508181036000830152612c9c8161260b565b9050919050565b60006020820190508181036000830152612cbc81612674565b9050919050565b60006020820190508181036000830152612cdc81612697565b9050919050565b60006020820190508181036000830152612cfc816126ba565b9050919050565b60006020820190508181036000830152612d1c81612700565b9050919050565b60006020820190508181036000830152612d3c81612746565b9050919050565b60006020820190508181036000830152612d5c816127af565b9050919050565b60006020820190508181036000830152612d7c816127f5565b9050919050565b6000602082019050612d98600083018461285e565b92915050565b6000612da8612db9565b9050612db48282613049565b919050565b6000604051905090565b600067ffffffffffffffff821115612dde57612ddd613181565b5b612de7826131b0565b9050602081019050919050565b60008190508160005260206000209050919050565b600081519050919050565b600081519050919050565b600082825260208201905092915050565b600082825260208201905092915050565b600081905092915050565b6000612e5782612fcb565b9150612e6283612fcb565b9250827fffffffffffffffffffffffffffffffffffffffffffffffffffffffffffffffff03821115612e9757612e966130f4565b5b828201905092915050565b6000612ead82612fcb565b9150612eb883612fcb565b925082612ec857612ec7613123565b5b828204905092915050565b6000612ede82612fcb565b9150612ee983612fcb565b9250817fffffffffffffffffffffffffffffffffffffffffffffffffffffffffffffffff0483118215151615612f2257612f216130f4565b5b828202905092915050565b6000612f3882612fcb565b9150612f4383612fcb565b925082821015612f5657612f556130f4565b5b828203905092915050565b6000612f6c82612fab565b9050919050565b60008115159050919050565b60007fffffffff0000000000000000000000000000000000000000000000000000000082169050919050565b600073ffffffffffffffffffffffffffffffffffffffff82169050919050565b6000819050919050565b82818337600083830152505050565b60005b83811015613002578082015181840152602081019050612fe7565b83811115613011576000848401525b50505050565b6000600282049050600182168061302f57607f821691505b6020821081141561304357613042613152565b5b50919050565b613052826131b0565b810181811067ffffffffffffffff8211171561307157613070613181565b5b80604052505050565b600061308582612fcb565b91507fffffffffffffffffffffffffffffffffffffffffffffffffffffffffffffffff8214156130b8576130b76130f4565b5b600182019050919050565b60006130ce82612fcb565b91506130d983612fcb565b9250826130e9576130e8613123565b5b828206905092915050565b7f4e487b7100000000000000000000000000000000000000000000000000000000600052601160045260246000fd5b7f4e487b7100000000000000000000000000000000000000000000000000000000600052601260045260246000fd5b7f4e487b7100000000000000000000000000000000000000000000000000000000600052602260045260246000fd5b7f4e487b7100000000000000000000000000000000000000000000000000000000600052604160045260246000fd5b6000601f19601f8301169050919050565b7f7b226e616d65223a220000000000000000000000000000000000000000000000600082015250565b7f4552433732313a207472616e7366657220746f206e6f6e20455243373231526560008201527f63656976657220696d706c656d656e7465720000000000000000000000000000602082015250565b7f4552433732313a20746f6b656e20616c7265616479206d696e74656400000000600082015250565b7f7365636f6e640000000000000000000000000000000000000000000000000000600082015250565b7f4552433732313a207472616e7366657220746f20746865207a65726f2061646460008201527f7265737300000000000000000000000000000000000000000000000000000000602082015250565b7f4552433732313a20617070726f766520746f2063616c6c657200000000000000600082015250565b7f4552433732313a206f70657261746f7220717565727920666f72206e6f6e657860008201527f697374656e7420746f6b656e0000000000000000000000000000000000000000602082015250565b7f6669727374000000000000000000000000000000000000000000000000000000600082015250565b7f4552433732313a20617070726f76652063616c6c6572206973206e6f74206f7760008201527f6e6572206e6f7220617070726f76656420666f7220616c6c0000000000000000602082015250565b7f4552433732313a2062616c616e636520717565727920666f7220746865207a6560008201527f726f206164647265737300000000000000000000000000000000000000000000602082015250565b7f4552433732313a206f776e657220717565727920666f72206e6f6e657869737460008201527f656e7420746f6b656e0000000000000000000000000000000000000000000000602082015250565b7f45524337323155524953746f726167653a2055524920736574206f66206e6f6e60008201527f6578697374656e7420746f6b656e000000000000000000000000000000000000602082015250565b7f776f72645f636f6c6f7200000000000000000000000000000000000000000000600082015250565b7f227d000000000000000000000000000000000000000000000000000000000000600082015250565b7f4552433732313a206d696e7420746f20746865207a65726f2061646472657373600082015250565b7f45524337323155524953746f726167653a2055524920717565727920666f722060008201527f6e6f6e6578697374656e7420746f6b656e000000000000000000000000000000602082015250565b7f4552433732313a20617070726f76656420717565727920666f72206e6f6e657860008201527f697374656e7420746f6b656e0000000000000000000000000000000000000000602082015250565b7f222c20226465736372697074696f6e223a220000000000000000000000000000600082015250565b7f4552433732313a207472616e73666572206f6620746f6b656e2074686174206960008201527f73206e6f74206f776e0000000000000000000000000000000000000000000000602082015250565b7f626173655f636f6c6f7200000000000000000000000000000000000000000000600082015250565b7f4552433732314d657461646174613a2055524920717565727920666f72206e6f60008201527f6e6578697374656e7420746f6b656e0000000000000000000000000000000000602082015250565b7f2300000000000000000000000000000000000000000000000000000000000000600082015250565b7f7468697264000000000000000000000000000000000000000000000000000000600082015250565b7f4552433732313a20617070726f76616c20746f2063757272656e74206f776e6560008201527f7200000000000000000000000000000000000000000000000000000000000000602082015250565b7f646174613a6170706c69636174696f6e2f6a736f6e3b6261736536342c000000600082015250565b7f4552433732313a207472616e736665722063616c6c6572206973206e6f74206f60008201527f776e6572206e6f7220617070726f766564000000000000000000000000000000602082015250565b7f5f00000000000000000000000000000000000000000000000000000000000000600082015250565b7f222c2022696d616765223a22646174613a696d6167652f7376672b786d6c3b6260008201527f61736536342c0000000000000000000000000000000000000000000000000000602082015250565b61385a81612f61565b811461386557600080fd5b50565b61387181612f73565b811461387c57600080fd5b50565b61388881612f7f565b811461389357600080fd5b50565b61389f81612fcb565b81146138aa57600080fd5b5056fe416e204e465420772f20494420257320686173206265656e206d696e74656420746f2025734142434445464748494a4b4c4d4e4f505152535455565758595a6162636465666768696a6b6c6d6e6f707172737475767778797a303132333435363738392b2f41207371756967676c79206261636b67726f756e6420776974682061206665772073656c65637420776f7264732e204d6179206e6f74206d616b65206120706572736f6e20726963682c2062757420737572652069732066756e2ea26469706673582212205812356dd0aed914276a58ad2d5eb8d7f4c605954374e4837b5b726db07167b564736f6c634300080400333c2f746578743e3c7061746820643d274d31303030203048307631303030683130303056305a4d3238352e333634203538372e34383263302d39392e3234382034312e3738322d3135322e323037203135312e3738362d3135322e3230377336382e3235352035302e323138203132302e3937332035302e3231386333362e3038312030203133352e3736322d3131302e363631203133352e3736322037322e3537372030203136332e3832392d3130342e3234332037382e3630382d3136312e3334392037382e3630382d33342e39363920302d34302e3335322d36312e37392d37382e31382d36312e37392d37372e39363620302d31332e313038203132342e3732312d38362e353238203132342e373231732d38322e3436342d37362e3330392d38322e3436342d3131322e3132375a2720636c6173733d2762617365272f3e3c7061746820643d274d31303030203048307631303030683130303056305a4d3231352e323431203535332e31363763302d3132322e303832203131382e3532322d3138322e333933203235332e3833342d3138322e3339337333392e3936312039352e383636203130342e3830372039352e3836366334342e3338322030203136362e3939352d3133362e3132203136362e3939352038392e3237342030203230312e3531392d3132332e343035203130352e3634332d3139332e363439203130352e363433732d34392e3336372d36362e3533352d39352e3839382d36362e353335632d37362e383720302031302e3736203132362e3833312d37392e353531203132362e383331732d3135362e3533382d34362e3630352d3135362e3533382d3136382e3638365a2720636c6173733d2762617365272f3e3c7061746820643d274d31303030203048307631303030683130303056305a4d3134392e383132203535342e38373363302d3139382e323635203137302e3831352d3237312e303039203333392e3831322d3237312e303039203136382e39393820302034342e343338203135312e3431312039392e383639203135312e3431312035352e34332030203231362e3831322d3135382e343736203231362e383132203132332e30332030203235312e3638372d3135362e3936203134312e3330342d3234342e363931203134312e3330342d3131322e36363820302d35342e3637372d39312e3134332d3131322e3739312d39312e3134332d37342e33363920302035352e313131203135332e3736312d35372e363833203135332e373631732d3234312e3332382d35342e38382d3234312e3332382d3230372e3335345a2720636c6173733d2762617365272f3e3c7061746820643d274d31303030203048307631303030683130303056305a4d38352e373233203536312e30383763302d37312e3834322d33332e3632372d3234342e3137352034392e3139332d3234342e313735203132352e37323520302039352e3331342d3234392e393439203135302e3434382d3234392e393439203135362e343236203020342e353234203137302e323031203230362e353139203137302e323031203230312e39393420302039322e393931203131302e3538203135392e323435203131302e35382036362e3235332030203232392e3537342d38322e3533203232392e353734203135322e3235362030203237392e3436322d36362e363437203332372e3139362d3133392e383235203332372e3139362d39332e31353220302d36382e3433332d3130352e3334332d3232362e3037332d3130352e3334332d3133342e36363520302d352e3831382038372e3037342d3134302e3633352038372e3037342d3133342e38313720302d3238382e3434362d36352e3539362d3238382e3434362d3234372e38345a2720636c6173733d2762617365272f3e3c7061746820643d274d31303030203048307631303030683130303056305a4d34352e373336203536372e34343263302d37312e38343220362e33362d3235302e35332038392e31382d3235302e3533203132352e37323520302037392e3036352d3238312e363431203133342e3139392d3238312e363431203135362e34323720302039362e353335203131332e323331203239382e353239203131332e3233317335392e393838203134332e343933203132362e323431203134332e343933203237362e3536382d35382e353037203237362e353638203137362e3237396330203339392e3331392d3133342e313033203437332e3538372d3230372e323832203437332e3538372d39332e31353220302d35372e3635352d3131342e3636352d3231352e3239352d3131342e3636352d3133342e36363620302d37302e363837203130372e3031352d3230352e353034203130372e3031355334352e373336203734392e3638362034352e373336203536372e3434325a2720636c6173733d2762617365272f3e3c2f7376673e3c7376672076696577426f783d27302030203130303020313030302720786d6c6e733d27687474703a2f2f7777772e77332e6f72672f323030302f7376672720786d6c3a73706163653d27707265736572766527207374796c653d2766696c6c2d72756c653a6576656e6f64643b636c69702d72756c653a6576656e6f64643b7374726f6b652d6c696e656a6f696e3a726f756e643b7374726f6b652d6d697465726c696d69743a32273e3c7374796c653e2e626173657b66696c6c2d6f7061636974793a2e33323b66696c6c3a7d3c2f7374796c653e3c70617468207374796c653d2766696c6c3a6e6f6e652720643d274d3020306831303030763130303048307a272f3e3c70617468207374796c653d2766696c6c3a233030302720643d274d3020306831303030763130303048307a272f3e3c7061746820636c6173733d27626173652720643d274d3020306831303030763130303048307a272f3e3c7061746820643d274d31303030203048307631303030683130303056305a4d3331392e363732203538372e33303863302d34302e3638382034302e3230362d36392e3736312037352e3731382d36392e373631732d31362e3137322031362e3238342d31362e3137322037372e33383263302033302e31313620362e30342037342e3436352d31382e3031362037342e3436352d32342e30353520302d34312e35332d34312e3339392d34312e35332d38322e3038365a6d3234362e3932362032312e3334376333322e37353420302037372e3833352d31352e3233362037372e3833352d33332e37313720302d31382e3438312d31392e3838372d34392e3939392d35332e3437332d34392e393939732d31342e3133322033372e3331322d33352e3236362033372e3331322d32312e3835312034362e3430342031302e3930342034362e3430345a2720636c6173733d2762617365272f3e3c7465787420783d273530252720793d273530252720646f6d696e616e742d626173656c696e653d276d6964646c652720746578742d616e63686f723d276d6964646c652720726f746174653d27313027207374796c653d27666f6e742d66616d696c793a73616e732d73657269663b666f6e742d73697a653a393070783b66696c6c3a",
  "linkReferences": {},
  "deployedLinkReferences": {}
}